{
  "_format": "hh-sol-artifact-1",
  "contractName": "MintableToken",
  "sourceName": "contracts/MintableToken.sol",
  "abi": [
    {
      "constant": true,
      "inputs": [],
      "name": "mintingFinished",
      "outputs": [
        {
          "name": "",
          "type": "bool"
        }
      ],
      "payable": false,
      "stateMutability": "view",
      "type": "function"
    },
    {
      "constant": false,
      "inputs": [
        {
          "name": "_spender",
          "type": "address"
        },
        {
          "name": "_value",
          "type": "uint256"
        }
      ],
      "name": "approve",
      "outputs": [
        {
          "name": "",
          "type": "bool"
        }
      ],
      "payable": false,
      "stateMutability": "nonpayable",
      "type": "function"
    },
    {
      "constant": true,
      "inputs": [],
      "name": "totalSupply",
      "outputs": [
        {
          "name": "",
          "type": "uint256"
        }
      ],
      "payable": false,
      "stateMutability": "view",
      "type": "function"
    },
    {
      "constant": false,
      "inputs": [
        {
          "name": "_from",
          "type": "address"
        },
        {
          "name": "_to",
          "type": "address"
        },
        {
          "name": "_value",
          "type": "uint256"
        }
      ],
      "name": "transferFrom",
      "outputs": [
        {
          "name": "",
          "type": "bool"
        }
      ],
      "payable": false,
      "stateMutability": "nonpayable",
      "type": "function"
    },
    {
      "constant": false,
      "inputs": [
        {
          "name": "addrs",
          "type": "address[]"
        }
      ],
      "name": "removeAddressesFromWhitelist",
      "outputs": [
        {
          "name": "success",
          "type": "bool"
        }
      ],
      "payable": false,
      "stateMutability": "nonpayable",
      "type": "function"
    },
    {
      "constant": false,
      "inputs": [
        {
          "name": "addr",
          "type": "address"
        }
      ],
      "name": "removeAddressFromWhitelist",
      "outputs": [
        {
          "name": "success",
          "type": "bool"
        }
      ],
      "payable": false,
      "stateMutability": "nonpayable",
      "type": "function"
    },
    {
      "constant": false,
      "inputs": [
        {
          "name": "_to",
          "type": "address"
        },
        {
          "name": "_amount",
          "type": "uint256"
        }
      ],
      "name": "mint",
      "outputs": [
        {
          "name": "",
          "type": "bool"
        }
      ],
      "payable": false,
      "stateMutability": "nonpayable",
      "type": "function"
    },
    {
      "constant": false,
      "inputs": [
        {
          "name": "_spender",
          "type": "address"
        },
        {
          "name": "_subtractedValue",
          "type": "uint256"
        }
      ],
      "name": "decreaseApproval",
      "outputs": [
        {
          "name": "",
          "type": "bool"
        }
      ],
      "payable": false,
      "stateMutability": "nonpayable",
      "type": "function"
    },
    {
      "constant": true,
      "inputs": [
        {
          "name": "_owner",
          "type": "address"
        }
      ],
      "name": "balanceOf",
      "outputs": [
        {
          "name": "",
          "type": "uint256"
        }
      ],
      "payable": false,
      "stateMutability": "view",
      "type": "function"
    },
    {
      "constant": false,
      "inputs": [
        {
          "name": "addr",
          "type": "address"
        }
      ],
      "name": "addAddressToWhitelist",
      "outputs": [
        {
          "name": "success",
          "type": "bool"
        }
      ],
      "payable": false,
      "stateMutability": "nonpayable",
      "type": "function"
    },
    {
      "constant": false,
      "inputs": [],
      "name": "finishMinting",
      "outputs": [
        {
          "name": "",
          "type": "bool"
        }
      ],
      "payable": false,
      "stateMutability": "nonpayable",
      "type": "function"
    },
    {
      "constant": true,
      "inputs": [],
      "name": "owner",
      "outputs": [
        {
          "name": "",
          "type": "address"
        }
      ],
      "payable": false,
      "stateMutability": "view",
      "type": "function"
    },
    {
      "constant": true,
      "inputs": [
        {
          "name": "",
          "type": "address"
        }
      ],
      "name": "whitelist",
      "outputs": [
        {
          "name": "",
          "type": "bool"
        }
      ],
      "payable": false,
      "stateMutability": "view",
      "type": "function"
    },
    {
      "constant": false,
      "inputs": [
        {
          "name": "_to",
          "type": "address"
        },
        {
          "name": "_value",
          "type": "uint256"
        }
      ],
      "name": "transfer",
      "outputs": [
        {
          "name": "",
          "type": "bool"
        }
      ],
      "payable": false,
      "stateMutability": "nonpayable",
      "type": "function"
    },
    {
      "constant": false,
      "inputs": [
        {
          "name": "_spender",
          "type": "address"
        },
        {
          "name": "_addedValue",
          "type": "uint256"
        }
      ],
      "name": "increaseApproval",
      "outputs": [
        {
          "name": "",
          "type": "bool"
        }
      ],
      "payable": false,
      "stateMutability": "nonpayable",
      "type": "function"
    },
    {
      "constant": true,
      "inputs": [
        {
          "name": "_owner",
          "type": "address"
        },
        {
          "name": "_spender",
          "type": "address"
        }
      ],
      "name": "allowance",
      "outputs": [
        {
          "name": "",
          "type": "uint256"
        }
      ],
      "payable": false,
      "stateMutability": "view",
      "type": "function"
    },
    {
      "constant": false,
      "inputs": [
        {
          "name": "addrs",
          "type": "address[]"
        }
      ],
      "name": "addAddressesToWhitelist",
      "outputs": [
        {
          "name": "success",
          "type": "bool"
        }
      ],
      "payable": false,
      "stateMutability": "nonpayable",
      "type": "function"
    },
    {
      "constant": false,
      "inputs": [
        {
          "name": "newOwner",
          "type": "address"
        }
      ],
      "name": "transferOwnership",
      "outputs": [],
      "payable": false,
      "stateMutability": "nonpayable",
      "type": "function"
    },
    {
      "anonymous": false,
      "inputs": [
        {
          "indexed": true,
          "name": "to",
          "type": "address"
        },
        {
          "indexed": false,
          "name": "amount",
          "type": "uint256"
        }
      ],
      "name": "Mint",
      "type": "event"
    },
    {
      "anonymous": false,
      "inputs": [],
      "name": "MintFinished",
      "type": "event"
    },
    {
      "anonymous": false,
      "inputs": [
        {
          "indexed": false,
          "name": "addr",
          "type": "address"
        }
      ],
      "name": "WhitelistedAddressAdded",
      "type": "event"
    },
    {
      "anonymous": false,
      "inputs": [
        {
          "indexed": false,
          "name": "addr",
          "type": "address"
        }
      ],
      "name": "WhitelistedAddressRemoved",
      "type": "event"
    },
    {
      "anonymous": false,
      "inputs": [
        {
          "indexed": true,
          "name": "previousOwner",
          "type": "address"
        },
        {
          "indexed": true,
          "name": "newOwner",
          "type": "address"
        }
      ],
      "name": "OwnershipTransferred",
      "type": "event"
    },
    {
      "anonymous": false,
      "inputs": [
        {
          "indexed": true,
          "name": "owner",
          "type": "address"
        },
        {
          "indexed": true,
          "name": "spender",
          "type": "address"
        },
        {
          "indexed": false,
          "name": "value",
          "type": "uint256"
        }
      ],
      "name": "Approval",
      "type": "event"
    },
    {
      "anonymous": false,
      "inputs": [
        {
          "indexed": true,
          "name": "from",
          "type": "address"
        },
        {
          "indexed": true,
          "name": "to",
          "type": "address"
        },
        {
          "indexed": false,
          "name": "value",
          "type": "uint256"
        }
      ],
      "name": "Transfer",
      "type": "event"
    }
  ],
  "bytecode": "0x60806040526005805460ff1916905560038054600160a060020a03191633179055610edc8061002f6000396000f3006080604052600436106100fb5763ffffffff7c010000000000000000000000000000000000000000000000000000000060003504166305d2035b8114610100578063095ea7b31461012957806318160ddd1461014d57806323b872dd1461017457806324953eaa1461019e578063286dd3f5146101f357806340c10f1914610214578063661884631461023857806370a082311461025c5780637b9417c81461027d5780637d64bcb41461029e5780638da5cb5b146102b35780639b19251a146102e4578063a9059cbb14610305578063d73dd62314610329578063dd62ed3e1461034d578063e2ec6ec314610374578063f2fde38b146103c9575b600080fd5b34801561010c57600080fd5b506101156103ec565b604080519115158252519081900360200190f35b34801561013557600080fd5b50610115600160a060020a03600435166024356103f5565b34801561015957600080fd5b5061016261045b565b60408051918252519081900360200190f35b34801561018057600080fd5b50610115600160a060020a0360043581169060243516604435610461565b3480156101aa57600080fd5b5060408051602060048035808201358381028086018501909652808552610115953695939460249493850192918291850190849080828437509497506105d89650505050505050565b3480156101ff57600080fd5b50610115600160a060020a0360043516610672565b34801561022057600080fd5b50610115600160a060020a0360043516602435610744565b34801561024457600080fd5b50610115600160a060020a03600435166024356108ab565b34801561026857600080fd5b50610162600160a060020a036004351661099b565b34801561028957600080fd5b50610115600160a060020a03600435166109b6565b3480156102aa57600080fd5b50610115610a8b565b3480156102bf57600080fd5b506102c8610b40565b60408051600160a060020a039092168252519081900360200190f35b3480156102f057600080fd5b50610115600160a060020a0360043516610b4f565b34801561031157600080fd5b50610115600160a060020a0360043516602435610b64565b34801561033557600080fd5b50610115600160a060020a0360043516602435610c45565b34801561035957600080fd5b50610162600160a060020a0360043581169060243516610cde565b34801561038057600080fd5b506040805160206004803580820135838102808601850190965280855261011595369593946024949385019291829185019084908082843750949750610d099650505050505050565b3480156103d557600080fd5b506103ea600160a060020a0360043516610d9d565b005b60055460ff1681565b336000818152600260209081526040808320600160a060020a038716808552908352818420869055815186815291519394909390927f8c5be1e5ebec7d5bd14f71427d1e84f3dd0314c0f7b2291e5b200ac8c7c3b925928290030190a350600192915050565b60015490565b6000600160a060020a038316151561047857600080fd5b600160a060020a03841660009081526020819052604090205482111561049d57600080fd5b600160a060020a03841660009081526002602090815260408083203384529091529020548211156104cd57600080fd5b600160a060020a0384166000908152602081905260409020546104f6908363ffffffff610e6b16565b600160a060020a03808616600090815260208190526040808220939093559085168152205461052b908363ffffffff610e7d16565b600160a060020a0380851660009081526020818152604080832094909455918716815260028252828120338252909152205461056d908363ffffffff610e6b16565b600160a060020a03808616600081815260026020908152604080832033845282529182902094909455805186815290519287169391927fddf252ad1be2c89b69c2b068fc378daa952ba7f163c4a11628f55a4df523b3ef929181900390910190a35060019392505050565b6003546000908190600160a060020a0316331461062d576040805160e560020a62461bcd02815260206004820152600a6024820152600080516020610e91833981519152604482015290519081900360640190fd5b5060005b825181101561066c5761065a838281518110151561064b57fe5b90602001906020020151610672565b1561066457600191505b600101610631565b50919050565b600354600090600160a060020a031633146106c5576040805160e560020a62461bcd02815260206004820152600a6024820152600080516020610e91833981519152604482015290519081900360640190fd5b600160a060020a03821660009081526004602052604090205460ff161561073f57600160a060020a038216600081815260046020908152604091829020805460ff19169055815192835290517ff1abf01a1043b7c244d128e8595cf0c1d10743b022b03a02dffd8ca3bf729f5a9281900390910190a15060015b919050565b3360009081526004602052604081205460ff1615156107ad576040805160e560020a62461bcd02815260206004820152600f60248201527f6e6f742077686974656c69737465640000000000000000000000000000000000604482015290519081900360640190fd5b60055460ff16156107bd57600080fd5b600160a060020a03831615156107d257600080fd5b6001546107e5908363ffffffff610e7d16565b600155600160a060020a038316600090815260208190526040902054610811908363ffffffff610e7d16565b600160a060020a03841660008181526020818152604091829020939093558051858152905191927f0f6798a560793a54c3bcfe86a93cde1e73087d944c0ea20544137d412139688592918290030190a2604080518381529051600160a060020a038516916000917fddf252ad1be2c89b69c2b068fc378daa952ba7f163c4a11628f55a4df523b3ef9181900360200190a350600192915050565b336000908152600260209081526040808320600160a060020a03861684529091528120548083111561090057336000908152600260209081526040808320600160a060020a0388168452909152812055610935565b610910818463ffffffff610e6b16565b336000908152600260209081526040808320600160a060020a03891684529091529020555b336000818152600260209081526040808320600160a060020a0389168085529083529281902054815190815290519293927f8c5be1e5ebec7d5bd14f71427d1e84f3dd0314c0f7b2291e5b200ac8c7c3b925929181900390910190a35060019392505050565b600160a060020a031660009081526020819052604090205490565b600354600090600160a060020a03163314610a09576040805160e560020a62461bcd02815260206004820152600a6024820152600080516020610e91833981519152604482015290519081900360640190fd5b600160a060020a03821660009081526004602052604090205460ff16151561073f57600160a060020a038216600081815260046020908152604091829020805460ff19166001179055815192835290517fd1bba68c128cc3f427e5831b3c6f99f480b6efa6b9e80c757768f6124158cc3f9281900390910190a1506001919050565b3360009081526004602052604081205460ff161515610af4576040805160e560020a62461bcd02815260206004820152600f60248201527f6e6f742077686974656c69737465640000000000000000000000000000000000604482015290519081900360640190fd5b60055460ff1615610b0457600080fd5b6005805460ff191660011790556040517fae5184fba832cb2b1f702aca6117b8d265eaf03ad33eb133f19dde0f5920fa0890600090a150600190565b600354600160a060020a031681565b60046020526000908152604090205460ff1681565b6000600160a060020a0383161515610b7b57600080fd5b33600090815260208190526040902054821115610b9757600080fd5b33600090815260208190526040902054610bb7908363ffffffff610e6b16565b3360009081526020819052604080822092909255600160a060020a03851681522054610be9908363ffffffff610e7d16565b600160a060020a038416600081815260208181526040918290209390935580518581529051919233927fddf252ad1be2c89b69c2b068fc378daa952ba7f163c4a11628f55a4df523b3ef9281900390910190a350600192915050565b336000908152600260209081526040808320600160a060020a0386168452909152812054610c79908363ffffffff610e7d16565b336000818152600260209081526040808320600160a060020a0389168085529083529281902085905580519485525191937f8c5be1e5ebec7d5bd14f71427d1e84f3dd0314c0f7b2291e5b200ac8c7c3b925929081900390910190a350600192915050565b600160a060020a03918216600090815260026020908152604080832093909416825291909152205490565b6003546000908190600160a060020a03163314610d5e576040805160e560020a62461bcd02815260206004820152600a6024820152600080516020610e91833981519152604482015290519081900360640190fd5b5060005b825181101561066c57610d8b8382815181101515610d7c57fe5b906020019060200201516109b6565b15610d9557600191505b600101610d62565b600354600160a060020a03163314610ded576040805160e560020a62461bcd02815260206004820152600a6024820152600080516020610e91833981519152604482015290519081900360640190fd5b600160a060020a0381161515610e0257600080fd5b600354604051600160a060020a038084169216907f8be0079c531659141344cd1fd0a4f28419497f9722a3daafe3b4186f6b6457e090600090a36003805473ffffffffffffffffffffffffffffffffffffffff1916600160a060020a0392909216919091179055565b600082821115610e7757fe5b50900390565b81810182811015610e8a57fe5b9291505056006f6e6c79206f776e657200000000000000000000000000000000000000000000a165627a7a72305820cb2f213c2944c6bc04b7f8f5153dd1a0b0df56a3633bedb1898638d70a4ab1320029",
  "linkReferences": {},
  "deployedLinkReferences": {}
}