{
  "_format": "hh-sol-artifact-1",
  "contractName": "Vault",
  "sourceName": "contracts/Vault.sol",
  "abi": [
    {
      "constant": false,
      "inputs": [
        {
          "name": "addrs",
          "type": "address[]"
        }
      ],
      "name": "removeAddressesFromWhitelist",
      "outputs": [
        {
          "name": "success",
          "type": "bool"
        }
      ],
      "payable": false,
      "stateMutability": "nonpayable",
      "type": "function"
    },
    {
      "constant": false,
      "inputs": [
        {
          "name": "addr",
          "type": "address"
        }
      ],
      "name": "removeAddressFromWhitelist",
      "outputs": [
        {
          "name": "success",
          "type": "bool"
        }
      ],
      "payable": false,
      "stateMutability": "nonpayable",
      "type": "function"
    },
    {
      "constant": false,
      "inputs": [
        {
          "name": "_amount",
          "type": "uint256"
        }
      ],
      "name": "withdraw",
      "outputs": [],
      "payable": false,
      "stateMutability": "nonpayable",
      "type": "function"
    },
    {
      "constant": false,
      "inputs": [
        {
          "name": "addr",
          "type": "address"
        }
      ],
      "name": "addAddressToWhitelist",
      "outputs": [
        {
          "name": "success",
          "type": "bool"
        }
      ],
      "payable": false,
      "stateMutability": "nonpayable",
      "type": "function"
    },
    {
      "constant": true,
      "inputs": [],
      "name": "owner",
      "outputs": [
        {
          "name": "",
          "type": "address"
        }
      ],
      "payable": false,
      "stateMutability": "view",
      "type": "function"
    },
    {
      "constant": true,
      "inputs": [
        {
          "name": "",
          "type": "address"
        }
      ],
      "name": "whitelist",
      "outputs": [
        {
          "name": "",
          "type": "bool"
        }
      ],
      "payable": false,
      "stateMutability": "view",
      "type": "function"
    },
    {
      "constant": false,
      "inputs": [
        {
          "name": "addrs",
          "type": "address[]"
        }
      ],
      "name": "addAddressesToWhitelist",
      "outputs": [
        {
          "name": "success",
          "type": "bool"
        }
      ],
      "payable": false,
      "stateMutability": "nonpayable",
      "type": "function"
    },
    {
      "constant": false,
      "inputs": [
        {
          "name": "newOwner",
          "type": "address"
        }
      ],
      "name": "transferOwnership",
      "outputs": [],
      "payable": false,
      "stateMutability": "nonpayable",
      "type": "function"
    },
    {
      "inputs": [
        {
          "name": "token_addr",
          "type": "address"
        }
      ],
      "payable": false,
      "stateMutability": "nonpayable",
      "type": "constructor"
    },
    {
      "anonymous": false,
      "inputs": [
        {
          "indexed": false,
          "name": "addr",
          "type": "address"
        }
      ],
      "name": "WhitelistedAddressAdded",
      "type": "event"
    },
    {
      "anonymous": false,
      "inputs": [
        {
          "indexed": false,
          "name": "addr",
          "type": "address"
        }
      ],
      "name": "WhitelistedAddressRemoved",
      "type": "event"
    },
    {
      "anonymous": false,
      "inputs": [
        {
          "indexed": true,
          "name": "previousOwner",
          "type": "address"
        },
        {
          "indexed": true,
          "name": "newOwner",
          "type": "address"
        }
      ],
      "name": "OwnershipTransferred",
      "type": "event"
    }
  ],
  "bytecode": "0x608060405234801561001057600080fd5b50604051602080610799833981016040525160008054600160a060020a0319908116331790915560028054600160a060020a039093169290911691909117905561073a8061005f6000396000f30060806040526004361061008d5763ffffffff7c010000000000000000000000000000000000000000000000000000000060003504166324953eaa8114610092578063286dd3f5146100fb5780632e1a7d4d1461011c5780637b9417c8146101365780638da5cb5b146101575780639b19251a14610188578063e2ec6ec3146101a9578063f2fde38b146101fe575b600080fd5b34801561009e57600080fd5b50604080516020600480358082013583810280860185019096528085526100e79536959394602494938501929182918501908490808284375094975061021f9650505050505050565b604080519115158252519081900360200190f35b34801561010757600080fd5b506100e7600160a060020a03600435166102b7565b34801561012857600080fd5b50610134600435610387565b005b34801561014257600080fd5b506100e7600160a060020a0360043516610497565b34801561016357600080fd5b5061016c61056b565b60408051600160a060020a039092168252519081900360200190f35b34801561019457600080fd5b506100e7600160a060020a036004351661057a565b3480156101b557600080fd5b50604080516020600480358082013583810280860185019096528085526100e79536959394602494938501929182918501908490808284375094975061058f9650505050505050565b34801561020a57600080fd5b50610134600160a060020a0360043516610621565b600080548190600160a060020a03163314610272576040805160e560020a62461bcd02815260206004820152600a60248201526000805160206106ef833981519152604482015290519081900360640190fd5b5060005b82518110156102b15761029f838281518110151561029057fe5b906020019060200201516102b7565b156102a957600191505b600101610276565b50919050565b60008054600160a060020a03163314610308576040805160e560020a62461bcd02815260206004820152600a60248201526000805160206106ef833981519152604482015290519081900360640190fd5b600160a060020a03821660009081526001602052604090205460ff161561038257600160a060020a038216600081815260016020908152604091829020805460ff19169055815192835290517ff1abf01a1043b7c244d128e8595cf0c1d10743b022b03a02dffd8ca3bf729f5a9281900390910190a15060015b919050565b3360009081526001602052604090205460ff1615156103f0576040805160e560020a62461bcd02815260206004820152600f60248201527f6e6f742077686974656c69737465640000000000000000000000000000000000604482015290519081900360640190fd5b600254604080517fa9059cbb000000000000000000000000000000000000000000000000000000008152336004820152602481018490529051600160a060020a039092169163a9059cbb916044808201926020929091908290030181600087803b15801561045d57600080fd5b505af1158015610471573d6000803e3d6000fd5b505050506040513d602081101561048757600080fd5b5051151561049457600080fd5b50565b60008054600160a060020a031633146104e8576040805160e560020a62461bcd02815260206004820152600a60248201526000805160206106ef833981519152604482015290519081900360640190fd5b600160a060020a03821660009081526001602052604090205460ff16151561038257600160a060020a038216600081815260016020818152604092839020805460ff1916909217909155815192835290517fd1bba68c128cc3f427e5831b3c6f99f480b6efa6b9e80c757768f6124158cc3f9281900390910190a1506001919050565b600054600160a060020a031681565b60016020526000908152604090205460ff1681565b600080548190600160a060020a031633146105e2576040805160e560020a62461bcd02815260206004820152600a60248201526000805160206106ef833981519152604482015290519081900360640190fd5b5060005b82518110156102b15761060f838281518110151561060057fe5b90602001906020020151610497565b1561061957600191505b6001016105e6565b600054600160a060020a03163314610671576040805160e560020a62461bcd02815260206004820152600a60248201526000805160206106ef833981519152604482015290519081900360640190fd5b600160a060020a038116151561068657600080fd5b60008054604051600160a060020a03808516939216917f8be0079c531659141344cd1fd0a4f28419497f9722a3daafe3b4186f6b6457e091a36000805473ffffffffffffffffffffffffffffffffffffffff1916600160a060020a039290921691909117905556006f6e6c79206f776e657200000000000000000000000000000000000000000000a165627a7a723058200d648f0034514489e3b0d1564123f7553a4990b1b0e4ed0f4d95a72386b0fba40029",
  "linkReferences": {},
  "deployedLinkReferences": {}
}