{
  "_format": "hh-sol-artifact-1",
  "contractName": "FaucetV4",
  "sourceName": "contracts/FaucetV4.sol",
  "abi": [
    {
      "inputs": [
        {
          "internalType": "address",
          "name": "_dripToken",
          "type": "address"
        },
        {
          "internalType": "address",
          "name": "_dripVault",
          "type": "address"
        },
        {
          "internalType": "address",
          "name": "_devAddr",
          "type": "address"
        }
      ],
      "stateMutability": "nonpayable",
      "type": "constructor"
    },
    {
      "anonymous": false,
      "inputs": [
        {
          "indexed": true,
          "internalType": "address",
          "name": "_src",
          "type": "address"
        },
        {
          "indexed": true,
          "internalType": "address",
          "name": "_dest",
          "type": "address"
        },
        {
          "indexed": false,
          "internalType": "uint256",
          "name": "_deposits",
          "type": "uint256"
        },
        {
          "indexed": false,
          "internalType": "uint256",
          "name": "_payouts",
          "type": "uint256"
        }
      ],
      "name": "BalanceTransfer",
      "type": "event"
    },
    {
      "anonymous": false,
      "inputs": [
        {
          "indexed": true,
          "internalType": "address",
          "name": "addr",
          "type": "address"
        },
        {
          "indexed": true,
          "internalType": "address",
          "name": "beneficiary",
          "type": "address"
        }
      ],
      "name": "BeneficiaryUpdate",
      "type": "event"
    },
    {
      "anonymous": false,
      "inputs": [
        {
          "indexed": true,
          "internalType": "address",
          "name": "addr",
          "type": "address"
        },
        {
          "indexed": false,
          "internalType": "uint256",
          "name": "timestamp",
          "type": "uint256"
        }
      ],
      "name": "Checkin",
      "type": "event"
    },
    {
      "anonymous": false,
      "inputs": [
        {
          "indexed": true,
          "internalType": "address",
          "name": "addr",
          "type": "address"
        },
        {
          "indexed": false,
          "internalType": "uint256",
          "name": "timestamp",
          "type": "uint256"
        }
      ],
      "name": "HeartBeat",
      "type": "event"
    },
    {
      "anonymous": false,
      "inputs": [
        {
          "indexed": true,
          "internalType": "address",
          "name": "addr",
          "type": "address"
        },
        {
          "indexed": false,
          "internalType": "uint256",
          "name": "interval",
          "type": "uint256"
        }
      ],
      "name": "HeartBeatIntervalUpdate",
      "type": "event"
    },
    {
      "anonymous": false,
      "inputs": [
        {
          "indexed": true,
          "internalType": "address",
          "name": "addr",
          "type": "address"
        },
        {
          "indexed": false,
          "internalType": "uint256",
          "name": "referrals",
          "type": "uint256"
        },
        {
          "indexed": false,
          "internalType": "uint256",
          "name": "total_deposits",
          "type": "uint256"
        },
        {
          "indexed": false,
          "internalType": "uint256",
          "name": "total_payouts",
          "type": "uint256"
        },
        {
          "indexed": false,
          "internalType": "uint256",
          "name": "total_structure",
          "type": "uint256"
        }
      ],
      "name": "Leaderboard",
      "type": "event"
    },
    {
      "anonymous": false,
      "inputs": [
        {
          "indexed": true,
          "internalType": "address",
          "name": "addr",
          "type": "address"
        },
        {
          "indexed": false,
          "internalType": "uint256",
          "name": "amount",
          "type": "uint256"
        }
      ],
      "name": "LimitReached",
      "type": "event"
    },
    {
      "anonymous": false,
      "inputs": [
        {
          "indexed": true,
          "internalType": "address",
          "name": "addr",
          "type": "address"
        },
        {
          "indexed": true,
          "internalType": "address",
          "name": "manager",
          "type": "address"
        },
        {
          "indexed": false,
          "internalType": "uint256",
          "name": "timestamp",
          "type": "uint256"
        }
      ],
      "name": "ManagerUpdate",
      "type": "event"
    },
    {
      "anonymous": false,
      "inputs": [
        {
          "indexed": true,
          "internalType": "address",
          "name": "addr",
          "type": "address"
        },
        {
          "indexed": true,
          "internalType": "address",
          "name": "from",
          "type": "address"
        },
        {
          "indexed": false,
          "internalType": "uint256",
          "name": "amount",
          "type": "uint256"
        }
      ],
      "name": "MatchPayout",
      "type": "event"
    },
    {
      "anonymous": false,
      "inputs": [
        {
          "indexed": true,
          "internalType": "address",
          "name": "from",
          "type": "address"
        },
        {
          "indexed": true,
          "internalType": "address",
          "name": "to",
          "type": "address"
        },
        {
          "indexed": false,
          "internalType": "uint256",
          "name": "amount",
          "type": "uint256"
        },
        {
          "indexed": false,
          "internalType": "uint256",
          "name": "timestamp",
          "type": "uint256"
        }
      ],
      "name": "NewAirdrop",
      "type": "event"
    },
    {
      "anonymous": false,
      "inputs": [
        {
          "indexed": true,
          "internalType": "address",
          "name": "addr",
          "type": "address"
        },
        {
          "indexed": false,
          "internalType": "uint256",
          "name": "amount",
          "type": "uint256"
        }
      ],
      "name": "NewDeposit",
      "type": "event"
    },
    {
      "anonymous": false,
      "inputs": [
        {
          "indexed": true,
          "internalType": "address",
          "name": "previousOwner",
          "type": "address"
        },
        {
          "indexed": true,
          "internalType": "address",
          "name": "newOwner",
          "type": "address"
        }
      ],
      "name": "OwnershipTransferred",
      "type": "event"
    },
    {
      "anonymous": false,
      "inputs": [
        {
          "indexed": true,
          "internalType": "address",
          "name": "addr",
          "type": "address"
        },
        {
          "indexed": true,
          "internalType": "address",
          "name": "upline",
          "type": "address"
        }
      ],
      "name": "Upline",
      "type": "event"
    },
    {
      "anonymous": false,
      "inputs": [
        {
          "indexed": true,
          "internalType": "address",
          "name": "addr",
          "type": "address"
        },
        {
          "indexed": false,
          "internalType": "uint256",
          "name": "amount",
          "type": "uint256"
        }
      ],
      "name": "Withdraw",
      "type": "event"
    },
    {
      "stateMutability": "payable",
      "type": "fallback"
    },
    {
      "inputs": [],
      "name": "CompoundTax",
      "outputs": [
        {
          "internalType": "uint256",
          "name": "",
          "type": "uint256"
        }
      ],
      "stateMutability": "view",
      "type": "function"
    },
    {
      "inputs": [],
      "name": "ExitTax",
      "outputs": [
        {
          "internalType": "uint256",
          "name": "",
          "type": "uint256"
        }
      ],
      "stateMutability": "view",
      "type": "function"
    },
    {
      "inputs": [],
      "name": "MAX_UINT",
      "outputs": [
        {
          "internalType": "uint256",
          "name": "",
          "type": "uint256"
        }
      ],
      "stateMutability": "view",
      "type": "function"
    },
    {
      "inputs": [
        {
          "internalType": "address",
          "name": "_to",
          "type": "address"
        },
        {
          "internalType": "uint256",
          "name": "_amount",
          "type": "uint256"
        }
      ],
      "name": "airdrop",
      "outputs": [],
      "stateMutability": "nonpayable",
      "type": "function"
    },
    {
      "inputs": [
        {
          "internalType": "address",
          "name": "",
          "type": "address"
        }
      ],
      "name": "airdrops",
      "outputs": [
        {
          "internalType": "uint256",
          "name": "airdrops",
          "type": "uint256"
        },
        {
          "internalType": "uint256",
          "name": "airdrops_received",
          "type": "uint256"
        },
        {
          "internalType": "uint256",
          "name": "last_airdrop",
          "type": "uint256"
        }
      ],
      "stateMutability": "view",
      "type": "function"
    },
    {
      "inputs": [],
      "name": "claim",
      "outputs": [],
      "stateMutability": "nonpayable",
      "type": "function"
    },
    {
      "inputs": [
        {
          "internalType": "address",
          "name": "account",
          "type": "address"
        }
      ],
      "name": "claimForTest",
      "outputs": [],
      "stateMutability": "nonpayable",
      "type": "function"
    },
    {
      "inputs": [
        {
          "internalType": "address",
          "name": "_addr",
          "type": "address"
        }
      ],
      "name": "claimsAvailable",
      "outputs": [
        {
          "internalType": "uint256",
          "name": "",
          "type": "uint256"
        }
      ],
      "stateMutability": "view",
      "type": "function"
    },
    {
      "inputs": [],
      "name": "contractInfo",
      "outputs": [
        {
          "internalType": "uint256",
          "name": "_total_users",
          "type": "uint256"
        },
        {
          "internalType": "uint256",
          "name": "_total_deposited",
          "type": "uint256"
        },
        {
          "internalType": "uint256",
          "name": "_total_withdraw",
          "type": "uint256"
        },
        {
          "internalType": "uint256",
          "name": "_total_bnb",
          "type": "uint256"
        },
        {
          "internalType": "uint256",
          "name": "_total_txs",
          "type": "uint256"
        },
        {
          "internalType": "uint256",
          "name": "_total_airdrops",
          "type": "uint256"
        }
      ],
      "stateMutability": "view",
      "type": "function"
    },
    {
      "inputs": [
        {
          "internalType": "address",
          "name": "_addr",
          "type": "address"
        }
      ],
      "name": "creditsAndDebits",
      "outputs": [
        {
          "internalType": "uint256",
          "name": "_credits",
          "type": "uint256"
        },
        {
          "internalType": "uint256",
          "name": "_debits",
          "type": "uint256"
        }
      ],
      "stateMutability": "view",
      "type": "function"
    },
    {
      "inputs": [
        {
          "internalType": "address",
          "name": "",
          "type": "address"
        }
      ],
      "name": "custody",
      "outputs": [
        {
          "internalType": "address",
          "name": "manager",
          "type": "address"
        },
        {
          "internalType": "address",
          "name": "beneficiary",
          "type": "address"
        },
        {
          "internalType": "uint256",
          "name": "last_heartbeat",
          "type": "uint256"
        },
        {
          "internalType": "uint256",
          "name": "last_checkin",
          "type": "uint256"
        },
        {
          "internalType": "uint256",
          "name": "heartbeat_interval",
          "type": "uint256"
        }
      ],
      "stateMutability": "view",
      "type": "function"
    },
    {
      "inputs": [
        {
          "internalType": "uint256",
          "name": "_amount",
          "type": "uint256"
        }
      ],
      "name": "deposit",
      "outputs": [],
      "stateMutability": "nonpayable",
      "type": "function"
    },
    {
      "inputs": [],
      "name": "deposit_bracket_size",
      "outputs": [
        {
          "internalType": "uint256",
          "name": "",
          "type": "uint256"
        }
      ],
      "stateMutability": "view",
      "type": "function"
    },
    {
      "inputs": [],
      "name": "devAddr",
      "outputs": [
        {
          "internalType": "address",
          "name": "",
          "type": "address"
        }
      ],
      "stateMutability": "view",
      "type": "function"
    },
    {
      "inputs": [],
      "name": "devFee",
      "outputs": [
        {
          "internalType": "uint256",
          "name": "",
          "type": "uint256"
        }
      ],
      "stateMutability": "view",
      "type": "function"
    },
    {
      "inputs": [],
      "name": "dripVaultAddress",
      "outputs": [
        {
          "internalType": "address",
          "name": "",
          "type": "address"
        }
      ],
      "stateMutability": "view",
      "type": "function"
    },
    {
      "inputs": [
        {
          "internalType": "address",
          "name": "_addr",
          "type": "address"
        }
      ],
      "name": "getCustody",
      "outputs": [
        {
          "internalType": "address",
          "name": "_beneficiary",
          "type": "address"
        },
        {
          "internalType": "uint256",
          "name": "_heartbeat_interval",
          "type": "uint256"
        },
        {
          "internalType": "address",
          "name": "_manager",
          "type": "address"
        }
      ],
      "stateMutability": "view",
      "type": "function"
    },
    {
      "inputs": [
        {
          "internalType": "address",
          "name": "_addr",
          "type": "address"
        }
      ],
      "name": "isNetPositive",
      "outputs": [
        {
          "internalType": "bool",
          "name": "",
          "type": "bool"
        }
      ],
      "stateMutability": "view",
      "type": "function"
    },
    {
      "inputs": [
        {
          "internalType": "address",
          "name": "_addr",
          "type": "address"
        }
      ],
      "name": "lastActivity",
      "outputs": [
        {
          "internalType": "uint256",
          "name": "_heartbeat",
          "type": "uint256"
        },
        {
          "internalType": "uint256",
          "name": "_lapsed_heartbeat",
          "type": "uint256"
        },
        {
          "internalType": "uint256",
          "name": "_checkin",
          "type": "uint256"
        },
        {
          "internalType": "uint256",
          "name": "_lapsed_checkin",
          "type": "uint256"
        }
      ],
      "stateMutability": "view",
      "type": "function"
    },
    {
      "inputs": [
        {
          "internalType": "uint256",
          "name": "_amount",
          "type": "uint256"
        }
      ],
      "name": "maxPayoutOf",
      "outputs": [
        {
          "internalType": "uint256",
          "name": "",
          "type": "uint256"
        }
      ],
      "stateMutability": "pure",
      "type": "function"
    },
    {
      "inputs": [],
      "name": "max_payout_cap",
      "outputs": [
        {
          "internalType": "uint256",
          "name": "",
          "type": "uint256"
        }
      ],
      "stateMutability": "view",
      "type": "function"
    },
    {
      "inputs": [],
      "name": "minimumAmount",
      "outputs": [
        {
          "internalType": "uint256",
          "name": "",
          "type": "uint256"
        }
      ],
      "stateMutability": "view",
      "type": "function"
    },
    {
      "inputs": [],
      "name": "owner",
      "outputs": [
        {
          "internalType": "address",
          "name": "",
          "type": "address"
        }
      ],
      "stateMutability": "view",
      "type": "function"
    },
    {
      "inputs": [
        {
          "internalType": "address",
          "name": "_addr",
          "type": "address"
        }
      ],
      "name": "payoutOf",
      "outputs": [
        {
          "internalType": "uint256",
          "name": "payout",
          "type": "uint256"
        },
        {
          "internalType": "uint256",
          "name": "max_payout",
          "type": "uint256"
        },
        {
          "internalType": "uint256",
          "name": "net_payout",
          "type": "uint256"
        },
        {
          "internalType": "uint256",
          "name": "sustainability_fee",
          "type": "uint256"
        }
      ],
      "stateMutability": "view",
      "type": "function"
    },
    {
      "inputs": [
        {
          "internalType": "uint256",
          "name": "",
          "type": "uint256"
        }
      ],
      "name": "ref_balances",
      "outputs": [
        {
          "internalType": "uint256",
          "name": "",
          "type": "uint256"
        }
      ],
      "stateMutability": "view",
      "type": "function"
    },
    {
      "inputs": [],
      "name": "renounceOwnership",
      "outputs": [],
      "stateMutability": "nonpayable",
      "type": "function"
    },
    {
      "inputs": [],
      "name": "roll",
      "outputs": [],
      "stateMutability": "nonpayable",
      "type": "function"
    },
    {
      "inputs": [
        {
          "internalType": "address",
          "name": "_devAddr",
          "type": "address"
        }
      ],
      "name": "setDevAddr",
      "outputs": [],
      "stateMutability": "nonpayable",
      "type": "function"
    },
    {
      "inputs": [
        {
          "internalType": "uint256",
          "name": "_devFee",
          "type": "uint256"
        }
      ],
      "name": "setDevFee",
      "outputs": [],
      "stateMutability": "nonpayable",
      "type": "function"
    },
    {
      "inputs": [
        {
          "internalType": "uint256",
          "name": "_amount",
          "type": "uint256"
        }
      ],
      "name": "setMinAmount",
      "outputs": [],
      "stateMutability": "nonpayable",
      "type": "function"
    },
    {
      "inputs": [
        {
          "internalType": "address",
          "name": "_addr",
          "type": "address"
        },
        {
          "internalType": "uint256",
          "name": "_pendingDiv",
          "type": "uint256"
        }
      ],
      "name": "sustainabilityFeeV2",
      "outputs": [
        {
          "internalType": "uint256",
          "name": "",
          "type": "uint256"
        }
      ],
      "stateMutability": "view",
      "type": "function"
    },
    {
      "inputs": [],
      "name": "testAmount",
      "outputs": [
        {
          "internalType": "uint256",
          "name": "",
          "type": "uint256"
        }
      ],
      "stateMutability": "view",
      "type": "function"
    },
    {
      "inputs": [
        {
          "internalType": "address",
          "name": "",
          "type": "address"
        }
      ],
      "name": "testClaim",
      "outputs": [
        {
          "internalType": "bool",
          "name": "",
          "type": "bool"
        }
      ],
      "stateMutability": "view",
      "type": "function"
    },
    {
      "inputs": [],
      "name": "total_airdrops",
      "outputs": [
        {
          "internalType": "uint256",
          "name": "",
          "type": "uint256"
        }
      ],
      "stateMutability": "view",
      "type": "function"
    },
    {
      "inputs": [],
      "name": "total_bnb",
      "outputs": [
        {
          "internalType": "uint256",
          "name": "",
          "type": "uint256"
        }
      ],
      "stateMutability": "view",
      "type": "function"
    },
    {
      "inputs": [],
      "name": "total_deposited",
      "outputs": [
        {
          "internalType": "uint256",
          "name": "",
          "type": "uint256"
        }
      ],
      "stateMutability": "view",
      "type": "function"
    },
    {
      "inputs": [],
      "name": "total_txs",
      "outputs": [
        {
          "internalType": "uint256",
          "name": "",
          "type": "uint256"
        }
      ],
      "stateMutability": "view",
      "type": "function"
    },
    {
      "inputs": [],
      "name": "total_users",
      "outputs": [
        {
          "internalType": "uint256",
          "name": "",
          "type": "uint256"
        }
      ],
      "stateMutability": "view",
      "type": "function"
    },
    {
      "inputs": [],
      "name": "total_withdraw",
      "outputs": [
        {
          "internalType": "uint256",
          "name": "",
          "type": "uint256"
        }
      ],
      "stateMutability": "view",
      "type": "function"
    },
    {
      "inputs": [
        {
          "internalType": "address",
          "name": "newOwner",
          "type": "address"
        }
      ],
      "name": "transferOwnership",
      "outputs": [],
      "stateMutability": "nonpayable",
      "type": "function"
    },
    {
      "inputs": [
        {
          "internalType": "uint256",
          "name": "_newCompoundTax",
          "type": "uint256"
        }
      ],
      "name": "updateCompoundTax",
      "outputs": [],
      "stateMutability": "nonpayable",
      "type": "function"
    },
    {
      "inputs": [
        {
          "internalType": "uint256",
          "name": "_newBracketSize",
          "type": "uint256"
        }
      ],
      "name": "updateDepositBracketSize",
      "outputs": [],
      "stateMutability": "nonpayable",
      "type": "function"
    },
    {
      "inputs": [
        {
          "internalType": "uint256",
          "name": "_newExitTax",
          "type": "uint256"
        }
      ],
      "name": "updateExitTax",
      "outputs": [],
      "stateMutability": "nonpayable",
      "type": "function"
    },
    {
      "inputs": [
        {
          "internalType": "uint256[]",
          "name": "_newRefBalances",
          "type": "uint256[]"
        }
      ],
      "name": "updateHoldRequirements",
      "outputs": [],
      "stateMutability": "nonpayable",
      "type": "function"
    },
    {
      "inputs": [
        {
          "internalType": "uint256",
          "name": "_newInitialDeposit",
          "type": "uint256"
        }
      ],
      "name": "updateInitialDeposit",
      "outputs": [],
      "stateMutability": "nonpayable",
      "type": "function"
    },
    {
      "inputs": [
        {
          "internalType": "uint256",
          "name": "_newPayoutCap",
          "type": "uint256"
        }
      ],
      "name": "updateMaxPayoutCap",
      "outputs": [],
      "stateMutability": "nonpayable",
      "type": "function"
    },
    {
      "inputs": [
        {
          "internalType": "uint256",
          "name": "_newPayoutRate",
          "type": "uint256"
        }
      ],
      "name": "updatePayoutRate",
      "outputs": [],
      "stateMutability": "nonpayable",
      "type": "function"
    },
    {
      "inputs": [
        {
          "internalType": "uint256",
          "name": "_newRefBonus",
          "type": "uint256"
        }
      ],
      "name": "updateRefBonus",
      "outputs": [],
      "stateMutability": "nonpayable",
      "type": "function"
    },
    {
      "inputs": [
        {
          "internalType": "uint256",
          "name": "_newRefDepth",
          "type": "uint256"
        }
      ],
      "name": "updateRefDepth",
      "outputs": [],
      "stateMutability": "nonpayable",
      "type": "function"
    },
    {
      "inputs": [
        {
          "internalType": "address",
          "name": "_addr",
          "type": "address"
        }
      ],
      "name": "userInfo",
      "outputs": [
        {
          "internalType": "address",
          "name": "upline",
          "type": "address"
        },
        {
          "internalType": "uint256",
          "name": "deposit_time",
          "type": "uint256"
        },
        {
          "internalType": "uint256",
          "name": "deposits",
          "type": "uint256"
        },
        {
          "internalType": "uint256",
          "name": "payouts",
          "type": "uint256"
        },
        {
          "internalType": "uint256",
          "name": "direct_bonus",
          "type": "uint256"
        },
        {
          "internalType": "uint256",
          "name": "match_bonus",
          "type": "uint256"
        },
        {
          "internalType": "uint256",
          "name": "last_airdrop",
          "type": "uint256"
        }
      ],
      "stateMutability": "view",
      "type": "function"
    },
    {
      "inputs": [
        {
          "internalType": "address",
          "name": "_addr",
          "type": "address"
        }
      ],
      "name": "userInfoTotals",
      "outputs": [
        {
          "internalType": "uint256",
          "name": "referrals",
          "type": "uint256"
        },
        {
          "internalType": "uint256",
          "name": "total_deposits",
          "type": "uint256"
        },
        {
          "internalType": "uint256",
          "name": "total_payouts",
          "type": "uint256"
        },
        {
          "internalType": "uint256",
          "name": "total_structure",
          "type": "uint256"
        },
        {
          "internalType": "uint256",
          "name": "airdrops_total",
          "type": "uint256"
        },
        {
          "internalType": "uint256",
          "name": "airdrops_received",
          "type": "uint256"
        }
      ],
      "stateMutability": "view",
      "type": "function"
    },
    {
      "inputs": [
        {
          "internalType": "address",
          "name": "",
          "type": "address"
        }
      ],
      "name": "users",
      "outputs": [
        {
          "internalType": "address",
          "name": "upline",
          "type": "address"
        },
        {
          "internalType": "uint256",
          "name": "referrals",
          "type": "uint256"
        },
        {
          "internalType": "uint256",
          "name": "total_structure",
          "type": "uint256"
        },
        {
          "internalType": "uint256",
          "name": "direct_bonus",
          "type": "uint256"
        },
        {
          "internalType": "uint256",
          "name": "match_bonus",
          "type": "uint256"
        },
        {
          "internalType": "uint256",
          "name": "deposits",
          "type": "uint256"
        },
        {
          "internalType": "uint256",
          "name": "deposit_time",
          "type": "uint256"
        },
        {
          "internalType": "uint256",
          "name": "payouts",
          "type": "uint256"
        },
        {
          "internalType": "uint256",
          "name": "rolls",
          "type": "uint256"
        },
        {
          "internalType": "uint256",
          "name": "ref_claim_pos",
          "type": "uint256"
        },
        {
          "internalType": "uint256",
          "name": "accumulatedDiv",
          "type": "uint256"
        }
      ],
      "stateMutability": "view",
      "type": "function"
    }
  ],
  "bytecode": "0x60806040526014600355600a600d556005601355600560155560646016553480156200002a57600080fd5b5060405162005407380380620054078339818101604052810190620000509190620002a1565b6200007062000064620001be60201b60201c565b620001c660201b60201c565b82600660006101000a81548173ffffffffffffffffffffffffffffffffffffffff021916908373ffffffffffffffffffffffffffffffffffffffff16021790555081600160006101000a81548173ffffffffffffffffffffffffffffffffffffffff021916908373ffffffffffffffffffffffffffffffffffffffff16021790555082600460006101000a81548173ffffffffffffffffffffffffffffffffffffffff021916908373ffffffffffffffffffffffffffffffffffffffff16021790555081600760006101000a81548173ffffffffffffffffffffffffffffffffffffffff021916908373ffffffffffffffffffffffffffffffffffffffff16021790555080600260006101000a81548173ffffffffffffffffffffffffffffffffffffffff021916908373ffffffffffffffffffffffffffffffffffffffff16021790555050505062000345565b600033905090565b60008060009054906101000a900473ffffffffffffffffffffffffffffffffffffffff169050816000806101000a81548173ffffffffffffffffffffffffffffffffffffffff021916908373ffffffffffffffffffffffffffffffffffffffff1602179055508173ffffffffffffffffffffffffffffffffffffffff168173ffffffffffffffffffffffffffffffffffffffff167f8be0079c531659141344cd1fd0a4f28419497f9722a3daafe3b4186f6b6457e060405160405180910390a35050565b6000815190506200029b816200032b565b92915050565b600080600060608486031215620002b757600080fd5b6000620002c7868287016200028a565b9350506020620002da868287016200028a565b9250506040620002ed868287016200028a565b9150509250925092565b600062000304826200030b565b9050919050565b600073ffffffffffffffffffffffffffffffffffffffff82169050919050565b6200033681620002f7565b81146200034257600080fd5b50565b6150b280620003556000396000f3fe6080604052600436106103035760003560e01c80638bf70ae511610190578063cd5e3c5d116100dc578063e5d7e8e411610095578063ea2caab31161006f578063ea2caab314610be0578063ef8c784114610c0b578063f07e96b314610c34578063f2fde38b14610c7457610304565b8063e5d7e8e414610b61578063e7cc62bd14610b8a578063e812b20214610bb557610304565b8063cd5e3c5d14610a5f578063d20ecd2014610a76578063da09c72c14610a9f578063de560cca14610aca578063e41e91ef14610af5578063e5b5019a14610b3657610304565b8063b12b34c411610149578063c5e63fd611610123578063c5e63fd6146109a5578063c635701f146109d0578063ca3f83d414610a0d578063cb65d1ba14610a3657610304565b8063b12b34c414610928578063b6b55f2514610951578063bb0c82981461097a57610304565b80638bf70ae5146107e65780638c86f0a71461080f5780638da5cb5b1461084e578063941b16e4146108795780639a8318f4146108b6578063a87430ba146108e157610304565b8063639a0b261161024f578063715018a6116102085780637f698c29116101e25780637f698c291461072c5780638959af3c14610757578063897b0637146107945780638ba4cc3c146107bd57610304565b8063715018a6146106a857806372fcfe41146106bf57806374b95b2d146106ea57610304565b8063639a0b26146105975780636827e764146105c25780636a372c2c146105ed5780636da61d1e146106165780636da7cd3d146106565780636ebb64a21461067f57610304565b80631c75b6b2116102bc57806347b8e6a31161029657806347b8e6a3146104db5780634e71d92d146105185780635432d2711461052f578063584c6f441461055a57610304565b80631c75b6b21461045c57806328ddc9821461048557806335bbc397146104b057610304565b80630709f1b8146103065780630e09b64c1461034457806314766fc31461036d57806315c43aaf146103aa5780631959a002146103da57806319d7152c1461041d57610304565b5b005b34801561031257600080fd5b5061032d600480360381019061032891906142c2565b610c9d565b60405161033b9291906149c5565b60405180910390f35b34801561035057600080fd5b5061036b60048036038101906103669190614391565b610e49565b005b34801561037957600080fd5b50610394600480360381019061038f91906142c2565b610eea565b6040516103a191906149aa565b60405180910390f35b3480156103b657600080fd5b506103bf610f0f565b6040516103d196959493929190614a6a565b60405180910390f35b3480156103e657600080fd5b5061040160048036038101906103fc91906142c2565b610f3e565b60405161041497969594939291906146f5565b60405180910390f35b34801561042957600080fd5b50610444600480360381019061043f91906142c2565b611157565b604051610453939291906146be565b60405180910390f35b34801561046857600080fd5b50610483600480360381019061047e9190614391565b611272565b005b34801561049157600080fd5b5061049a6112f8565b6040516104a791906145f0565b60405180910390f35b3480156104bc57600080fd5b506104c561131e565b6040516104d291906149aa565b60405180910390f35b3480156104e757600080fd5b5061050260048036038101906104fd91906142c2565b611324565b60405161050f919061480f565b60405180910390f35b34801561052457600080fd5b5061052d611342565b005b34801561053b57600080fd5b506105446113e6565b60405161055191906149aa565b60405180910390f35b34801561056657600080fd5b50610581600480360381019061057c91906142c2565b6113ec565b60405161058e919061480f565b60405180910390f35b3480156105a357600080fd5b506105ac61140c565b6040516105b991906149aa565b60405180910390f35b3480156105ce57600080fd5b506105d7611412565b6040516105e491906149aa565b60405180910390f35b3480156105f957600080fd5b50610614600480360381019061060f9190614327565b611418565b005b34801561062257600080fd5b5061063d600480360381019061063891906142c2565b611544565b60405161064d9493929190614a25565b60405180910390f35b34801561066257600080fd5b5061067d60048036038101906106789190614391565b611839565b005b34801561068b57600080fd5b506106a660048036038101906106a191906142c2565b6118bf565b005b3480156106b457600080fd5b506106bd611993565b005b3480156106cb57600080fd5b506106d4611a1b565b6040516106e191906149aa565b60405180910390f35b3480156106f657600080fd5b50610711600480360381019061070c91906142c2565b611a21565b60405161072396959493929190614a6a565b60405180910390f35b34801561073857600080fd5b50610741611bd1565b60405161074e91906149aa565b60405180910390f35b34801561076357600080fd5b5061077e60048036038101906107799190614391565b611bd7565b60405161078b91906149aa565b60405180910390f35b3480156107a057600080fd5b506107bb60048036038101906107b69190614391565b611bfa565b005b3480156107c957600080fd5b506107e460048036038101906107df91906142eb565b611c80565b005b3480156107f257600080fd5b5061080d60048036038101906108089190614391565b6121fc565b005b34801561081b57600080fd5b50610836600480360381019061083191906142c2565b612282565b604051610845939291906149ee565b60405180910390f35b34801561085a57600080fd5b506108636122ac565b60405161087091906145f0565b60405180910390f35b34801561088557600080fd5b506108a0600480360381019061089b91906142eb565b6122d5565b6040516108ad91906149aa565b60405180910390f35b3480156108c257600080fd5b506108cb612367565b6040516108d891906149aa565b60405180910390f35b3480156108ed57600080fd5b50610908600480360381019061090391906142c2565b61236d565b60405161091f9b9a99989796959493929190614764565b60405180910390f35b34801561093457600080fd5b5061094f600480360381019061094a9190614391565b6123e7565b005b34801561095d57600080fd5b5061097860048036038101906109739190614391565b61246d565b005b34801561098657600080fd5b5061098f612a35565b60405161099c91906149aa565b60405180910390f35b3480156109b157600080fd5b506109ba612a3b565b6040516109c791906149aa565b60405180910390f35b3480156109dc57600080fd5b506109f760048036038101906109f29190614391565b612a41565b604051610a0491906149aa565b60405180910390f35b348015610a1957600080fd5b50610a346004803603810190610a2f9190614391565b612a65565b005b348015610a4257600080fd5b50610a5d6004803603810190610a589190614391565b612aeb565b005b348015610a6b57600080fd5b50610a74612b8c565b005b348015610a8257600080fd5b50610a9d6004803603810190610a989190614391565b612b9d565b005b348015610aab57600080fd5b50610ab4612c23565b604051610ac191906145f0565b60405180910390f35b348015610ad657600080fd5b50610adf612c49565b604051610aec91906149aa565b60405180910390f35b348015610b0157600080fd5b50610b1c6004803603810190610b1791906142c2565b612c4f565b604051610b2d959493929190614642565b60405180910390f35b348015610b4257600080fd5b50610b4b612cc5565b604051610b5891906149aa565b60405180910390f35b348015610b6d57600080fd5b50610b886004803603810190610b839190614391565b612ce9565b005b348015610b9657600080fd5b50610b9f612d6f565b604051610bac91906149aa565b60405180910390f35b348015610bc157600080fd5b50610bca612d75565b604051610bd791906149aa565b60405180910390f35b348015610bec57600080fd5b50610bf5612d7b565b604051610c0291906149aa565b60405180910390f35b348015610c1757600080fd5b50610c326004803603810190610c2d91906142c2565b612d81565b005b348015610c4057600080fd5b50610c5b6004803603810190610c5691906142c2565b6131c4565b604051610c6b9493929190614a25565b60405180910390f35b348015610c8057600080fd5b50610c9b6004803603810190610c9691906142c2565b613285565b005b6000806000600860008573ffffffffffffffffffffffffffffffffffffffff1673ffffffffffffffffffffffffffffffffffffffff168152602001908152602001600020604051806101600160405290816000820160009054906101000a900473ffffffffffffffffffffffffffffffffffffffff1673ffffffffffffffffffffffffffffffffffffffff1673ffffffffffffffffffffffffffffffffffffffff168152602001600182015481526020016002820154815260200160038201548152602001600482015481526020016005820154815260200160068201548152602001600782015481526020016008820154815260200160098201548152602001600a8201548152505090506000600960008673ffffffffffffffffffffffffffffffffffffffff1673ffffffffffffffffffffffffffffffffffffffff168152602001908152602001600020604051806060016040529081600082015481526020016001820154815260200160028201548152505090508160a001518261010001518260000151610e2f9190614b2d565b610e399190614b2d565b93508160e0015192505050915091565b610e5161337d565b73ffffffffffffffffffffffffffffffffffffffff16610e6f6122ac565b73ffffffffffffffffffffffffffffffffffffffff1614610ec5576040517f08c379a0000000000000000000000000000000000000000000000000000000008152600401610ebc906148ea565b60405180910390fd5b60008110158015610ed7575060148111155b610ee057600080fd5b80600d8190555050565b6000806000806000610efb86611544565b935093509350935081945050505050919050565b600080600080600080601954601a54601b54601c54601d54601854955095509550955095509550909192939495565b6000806000806000806000600860008973ffffffffffffffffffffffffffffffffffffffff1673ffffffffffffffffffffffffffffffffffffffff16815260200190815260200160002060000160009054906101000a900473ffffffffffffffffffffffffffffffffffffffff16600860008a73ffffffffffffffffffffffffffffffffffffffff1673ffffffffffffffffffffffffffffffffffffffff16815260200190815260200160002060060154600860008b73ffffffffffffffffffffffffffffffffffffffff1673ffffffffffffffffffffffffffffffffffffffff16815260200190815260200160002060050154600860008c73ffffffffffffffffffffffffffffffffffffffff1673ffffffffffffffffffffffffffffffffffffffff16815260200190815260200160002060070154600860008d73ffffffffffffffffffffffffffffffffffffffff1673ffffffffffffffffffffffffffffffffffffffff16815260200190815260200160002060030154600860008e73ffffffffffffffffffffffffffffffffffffffff1673ffffffffffffffffffffffffffffffffffffffff16815260200190815260200160002060040154600960008f73ffffffffffffffffffffffffffffffffffffffff1673ffffffffffffffffffffffffffffffffffffffff168152602001908152602001600020600201549650965096509650965096509650919395979092949650565b6000806000600a60008573ffffffffffffffffffffffffffffffffffffffff1673ffffffffffffffffffffffffffffffffffffffff16815260200190815260200160002060010160009054906101000a900473ffffffffffffffffffffffffffffffffffffffff16600a60008673ffffffffffffffffffffffffffffffffffffffff1673ffffffffffffffffffffffffffffffffffffffff16815260200190815260200160002060040154600a60008773ffffffffffffffffffffffffffffffffffffffff1673ffffffffffffffffffffffffffffffffffffffff16815260200190815260200160002060000160009054906101000a900473ffffffffffffffffffffffffffffffffffffffff169250925092509193909250565b61127a61337d565b73ffffffffffffffffffffffffffffffffffffffff166112986122ac565b73ffffffffffffffffffffffffffffffffffffffff16146112ee576040517f08c379a00000000000000000000000000000000000000000000000000000000081526004016112e5906148ea565b60405180910390fd5b8060038190555050565b600160009054906101000a900473ffffffffffffffffffffffffffffffffffffffff1681565b600c5481565b600080600061133284610c9d565b9150915080821192505050919050565b62015180600860003373ffffffffffffffffffffffffffffffffffffffff1673ffffffffffffffffffffffffffffffffffffffff16815260200190815260200160002060060154426113949190614c0e565b10156113d5576040517f08c379a00000000000000000000000000000000000000000000000000000000081526004016113cc9061494a565b60405180910390fd5b60003390506113e381613385565b50565b601c5481565b600b6020528060005260406000206000915054906101000a900460ff1681565b600d5481565b60035481565b61142061337d565b73ffffffffffffffffffffffffffffffffffffffff1661143e6122ac565b73ffffffffffffffffffffffffffffffffffffffff1614611494576040517f08c379a000000000000000000000000000000000000000000000000000000000815260040161148b906148ea565b60405180910390fd5b600f548151146114a357600080fd5b601760006114b1919061419a565b60005b600f548160ff161015611540576017828260ff16815181106114ff577f4e487b7100000000000000000000000000000000000000000000000000000000600052603260045260246000fd5b60200260200101519080600181540180825580915050600190039060005260206000200160009091909190915055808061153890614d11565b9150506114b4565b5050565b6000806000806115a960145461159b600860008973ffffffffffffffffffffffffffffffffffffffff1673ffffffffffffffffffffffffffffffffffffffff16815260200190815260200160002060050154611bd7565b61388390919063ffffffff16565b9250600083600860008873ffffffffffffffffffffffffffffffffffffffff1673ffffffffffffffffffffffffffffffffffffffff168152602001908152602001600020600701541015611831576116916201518061168368056bc75e2d63100000611675670de0b6b3a7640000600e546116249190614bb4565b600860008d73ffffffffffffffffffffffffffffffffffffffff1673ffffffffffffffffffffffffffffffffffffffff1681526020019081526020016000206005015461389c90919063ffffffff16565b61390590919063ffffffff16565b61390590919063ffffffff16565b90506116e8600860008873ffffffffffffffffffffffffffffffffffffffff1673ffffffffffffffffffffffffffffffffffffffff168152602001908152602001600020600601544261391b90919063ffffffff16565b816116f39190614bb4565b9450600860008773ffffffffffffffffffffffffffffffffffffffff1673ffffffffffffffffffffffffffffffffffffffff168152602001908152602001600020600a0154856117439190614b2d565b94508385600860008973ffffffffffffffffffffffffffffffffffffffff1673ffffffffffffffffffffffffffffffffffffffff168152602001908152602001600020600701546117949190614b2d565b11156117f2576117ef600860008873ffffffffffffffffffffffffffffffffffffffff1673ffffffffffffffffffffffffffffffffffffffff168152602001908152602001600020600701548561391b90919063ffffffff16565b94505b60006117fe87876122d5565b90506064818761180e9190614bb4565b6118189190614b83565b925061182d838761391b90919063ffffffff16565b9350505b509193509193565b61184161337d565b73ffffffffffffffffffffffffffffffffffffffff1661185f6122ac565b73ffffffffffffffffffffffffffffffffffffffff16146118b5576040517f08c379a00000000000000000000000000000000000000000000000000000000081526004016118ac906148ea565b60405180910390fd5b80600e8190555050565b600260009054906101000a900473ffffffffffffffffffffffffffffffffffffffff1673ffffffffffffffffffffffffffffffffffffffff163373ffffffffffffffffffffffffffffffffffffffff161461194f576040517f08c379a00000000000000000000000000000000000000000000000000000000081526004016119469061486a565b60405180910390fd5b80600260006101000a81548173ffffffffffffffffffffffffffffffffffffffff021916908373ffffffffffffffffffffffffffffffffffffffff16021790555050565b61199b61337d565b73ffffffffffffffffffffffffffffffffffffffff166119b96122ac565b73ffffffffffffffffffffffffffffffffffffffff1614611a0f576040517f08c379a0000000000000000000000000000000000000000000000000000000008152600401611a06906148ea565b60405180910390fd5b611a196000613943565b565b60145481565b600080600080600080600860008873ffffffffffffffffffffffffffffffffffffffff1673ffffffffffffffffffffffffffffffffffffffff16815260200190815260200160002060010154600860008973ffffffffffffffffffffffffffffffffffffffff1673ffffffffffffffffffffffffffffffffffffffff16815260200190815260200160002060050154600860008a73ffffffffffffffffffffffffffffffffffffffff1673ffffffffffffffffffffffffffffffffffffffff16815260200190815260200160002060070154600860008b73ffffffffffffffffffffffffffffffffffffffff1673ffffffffffffffffffffffffffffffffffffffff16815260200190815260200160002060020154600960008c73ffffffffffffffffffffffffffffffffffffffff1673ffffffffffffffffffffffffffffffffffffffff16815260200190815260200160002060000154600960008d73ffffffffffffffffffffffffffffffffffffffff1673ffffffffffffffffffffffffffffffffffffffff1681526020019081526020016000206001015495509550955095509550955091939550919395565b60165481565b6000606461016d83611be99190614bb4565b611bf39190614b83565b9050919050565b611c0261337d565b73ffffffffffffffffffffffffffffffffffffffff16611c206122ac565b73ffffffffffffffffffffffffffffffffffffffff1614611c76576040517f08c379a0000000000000000000000000000000000000000000000000000000008152600401611c6d906148ea565b60405180910390fd5b8060128190555050565b6000339050600080600660009054906101000a900473ffffffffffffffffffffffffffffffffffffffff1673ffffffffffffffffffffffffffffffffffffffff166379a5b22784866040518363ffffffff1660e01b8152600401611ce5929190614695565b604080518083038186803b158015611cfc57600080fd5b505afa158015611d10573d6000803e3d6000fd5b505050506040513d601f19601f82011682018060405250810190611d3491906143e3565b91509150600660009054906101000a900473ffffffffffffffffffffffffffffffffffffffff1673ffffffffffffffffffffffffffffffffffffffff166323b872dd84600160009054906101000a900473ffffffffffffffffffffffffffffffffffffffff16876040518463ffffffff1660e01b8152600401611db99392919061460b565b602060405180830381600087803b158015611dd357600080fd5b505af1158015611de7573d6000803e3d6000fd5b505050506040513d601f19601f82011682018060405250810190611e0b9190614368565b611e4a576040517f08c379a0000000000000000000000000000000000000000000000000000000008152600401611e419061488a565b60405180910390fd5b600073ffffffffffffffffffffffffffffffffffffffff16600860008773ffffffffffffffffffffffffffffffffffffffff1673ffffffffffffffffffffffffffffffffffffffff16815260200190815260200160002060000160009054906101000a900473ffffffffffffffffffffffffffffffffffffffff1673ffffffffffffffffffffffffffffffffffffffff161415611f1c576040517f08c379a0000000000000000000000000000000000000000000000000000000008152600401611f13906148ca565b60405180910390fd5b6000611f2786611544565b505050905080600860008873ffffffffffffffffffffffffffffffffffffffff1673ffffffffffffffffffffffffffffffffffffffff168152602001908152602001600020600a018190555082600860008873ffffffffffffffffffffffffffffffffffffffff1673ffffffffffffffffffffffffffffffffffffffff1681526020019081526020016000206005016000828254611fc59190614b2d565b9250508190555042600860008873ffffffffffffffffffffffffffffffffffffffff1673ffffffffffffffffffffffffffffffffffffffff1681526020019081526020016000206006018190555082600960008673ffffffffffffffffffffffffffffffffffffffff1673ffffffffffffffffffffffffffffffffffffffff16815260200190815260200160002060000160008282546120659190614b2d565b9250508190555042600960008673ffffffffffffffffffffffffffffffffffffffff1673ffffffffffffffffffffffffffffffffffffffff1681526020019081526020016000206002018190555082600960008873ffffffffffffffffffffffffffffffffffffffff1673ffffffffffffffffffffffffffffffffffffffff16815260200190815260200160002060010160008282546121059190614b2d565b92505081905550826018600082825461211e9190614b2d565b925050819055506001601d60008282546121389190614b2d565b925050819055508573ffffffffffffffffffffffffffffffffffffffff168473ffffffffffffffffffffffffffffffffffffffff167ff6cef455daa2f0926726c225d4ab406e2be4fb2f4d92b0b4bd58e9127d501e18854260405161219e9291906149c5565b60405180910390a38573ffffffffffffffffffffffffffffffffffffffff167f2cb77763bc1e8490c1a904905c4d74b4269919aca114464f4bb4d911e60de364846040516121ec91906149aa565b60405180910390a2505050505050565b61220461337d565b73ffffffffffffffffffffffffffffffffffffffff166122226122ac565b73ffffffffffffffffffffffffffffffffffffffff1614612278576040517f08c379a000000000000000000000000000000000000000000000000000000000815260040161226f906148ea565b60405180910390fd5b8060108190555050565b60096020528060005260406000206000915090508060000154908060010154908060020154905083565b60008060009054906101000a900473ffffffffffffffffffffffffffffffffffffffff16905090565b60008061234160135461233385600860008973ffffffffffffffffffffffffffffffffffffffff1673ffffffffffffffffffffffffffffffffffffffff16815260200190815260200160002060070154613a0790919063ffffffff16565b61390590919063ffffffff16565b905061234f81601554613883565b905060058161235e9190614bb4565b91505092915050565b601b5481565b60086020528060005260406000206000915090508060000160009054906101000a900473ffffffffffffffffffffffffffffffffffffffff169080600101549080600201549080600301549080600401549080600501549080600601549080600701549080600801549080600901549080600a015490508b565b6123ef61337d565b73ffffffffffffffffffffffffffffffffffffffff1661240d6122ac565b73ffffffffffffffffffffffffffffffffffffffff1614612463576040517f08c379a000000000000000000000000000000000000000000000000000000000815260040161245a906148ea565b60405180910390fd5b8060118190555050565b6000339050600080600660009054906101000a900473ffffffffffffffffffffffffffffffffffffffff1673ffffffffffffffffffffffffffffffffffffffff166379a5b22784866040518363ffffffff1660e01b81526004016124d2929190614695565b604080518083038186803b1580156124e957600080fd5b505afa1580156124fd573d6000803e3d6000fd5b505050506040513d601f19601f8201168201806040525081019061252191906143e3565b91509150600082905060125485101561256f576040517f08c379a00000000000000000000000000000000000000000000000000000000081526004016125669061492a565b60405180910390fd5b6000600860008673ffffffffffffffffffffffffffffffffffffffff1673ffffffffffffffffffffffffffffffffffffffff168152602001908152602001600020600501541415612600576011548510156125ff576040517f08c379a00000000000000000000000000000000000000000000000000000000081526004016125f69061498a565b60405180910390fd5b5b600060648661260f9190614b83565b61261886610eea565b111561268057600061262b866001613a54565b905061265f60646126516126426064600c54613e21565b8461389c90919063ffffffff16565b61390590919063ffffffff16565b9150818361266d9190614b2d565b925060028261267c9190614b83565b9150505b600660009054906101000a900473ffffffffffffffffffffffffffffffffffffffff1673ffffffffffffffffffffffffffffffffffffffff166323b872dd86600260009054906101000a900473ffffffffffffffffffffffffffffffffffffffff166064600354886126f29190614bb4565b6126fc9190614b83565b6040518463ffffffff1660e01b815260040161271a9392919061460b565b602060405180830381600087803b15801561273457600080fd5b505af1158015612748573d6000803e3d6000fd5b505050506040513d601f19601f8201168201806040525081019061276c9190614368565b50600660009054906101000a900473ffffffffffffffffffffffffffffffffffffffff1673ffffffffffffffffffffffffffffffffffffffff166323b872dd86600160009054906101000a900473ffffffffffffffffffffffffffffffffffffffff16606460035460646127e09190614c0e565b886127eb9190614bb4565b6127f59190614b83565b886128009190614b2d565b6040518463ffffffff1660e01b815260040161281e9392919061460b565b602060405180830381600087803b15801561283857600080fd5b505af115801561284c573d6000803e3d6000fd5b505050506040513d601f19601f820116820180604052508101906128709190614368565b6128af576040517f08c379a00000000000000000000000000000000000000000000000000000000081526004016128a69061496a565b60405180910390fd5b6128b98583613e6e565b8473ffffffffffffffffffffffffffffffffffffffff167f51e3415e8dd1b315ada9b5823098637d5b45e2c277bbc5069a7be8a834c5bf01600860008873ffffffffffffffffffffffffffffffffffffffff1673ffffffffffffffffffffffffffffffffffffffff16815260200190815260200160002060010154600860008973ffffffffffffffffffffffffffffffffffffffff1673ffffffffffffffffffffffffffffffffffffffff16815260200190815260200160002060050154600860008a73ffffffffffffffffffffffffffffffffffffffff1673ffffffffffffffffffffffffffffffffffffffff16815260200190815260200160002060070154600860008b73ffffffffffffffffffffffffffffffffffffffff1673ffffffffffffffffffffffffffffffffffffffff16815260200190815260200160002060020154604051612a0d9493929190614a25565b60405180910390a2601d6000815480929190612a2890614cc8565b9190505550505050505050565b60125481565b601d5481565b60178181548110612a5157600080fd5b906000526020600020016000915090505481565b612a6d61337d565b73ffffffffffffffffffffffffffffffffffffffff16612a8b6122ac565b73ffffffffffffffffffffffffffffffffffffffff1614612ae1576040517f08c379a0000000000000000000000000000000000000000000000000000000008152600401612ad8906148ea565b60405180910390fd5b80600f8190555050565b612af361337d565b73ffffffffffffffffffffffffffffffffffffffff16612b116122ac565b73ffffffffffffffffffffffffffffffffffffffff1614612b67576040517f08c379a0000000000000000000000000000000000000000000000000000000008152600401612b5e906148ea565b60405180910390fd5b60008110158015612b79575060148111155b612b8257600080fd5b80600c8190555050565b6000339050612b9a81613f79565b50565b612ba561337d565b73ffffffffffffffffffffffffffffffffffffffff16612bc36122ac565b73ffffffffffffffffffffffffffffffffffffffff1614612c19576040517f08c379a0000000000000000000000000000000000000000000000000000000008152600401612c10906148ea565b60405180910390fd5b8060138190555050565b600260009054906101000a900473ffffffffffffffffffffffffffffffffffffffff1681565b601a5481565b600a6020528060005260406000206000915090508060000160009054906101000a900473ffffffffffffffffffffffffffffffffffffffff16908060010160009054906101000a900473ffffffffffffffffffffffffffffffffffffffff16908060020154908060030154908060040154905085565b7fffffffffffffffffffffffffffffffffffffffffffffffffffffffffffffffff81565b612cf161337d565b73ffffffffffffffffffffffffffffffffffffffff16612d0f6122ac565b73ffffffffffffffffffffffffffffffffffffffff1614612d65576040517f08c379a0000000000000000000000000000000000000000000000000000000008152600401612d5c906148ea565b60405180910390fd5b8060148190555050565b60195481565b60185481565b60135481565b600b60008273ffffffffffffffffffffffffffffffffffffffff1673ffffffffffffffffffffffffffffffffffffffff16815260200190815260200160002060009054906101000a900460ff1615612e0e576040517f08c379a0000000000000000000000000000000000000000000000000000000008152600401612e05906148aa565b60405180910390fd5b6000670de0b6b3a7640000601654612e269190614bb4565b90506000600660009054906101000a900473ffffffffffffffffffffffffffffffffffffffff1673ffffffffffffffffffffffffffffffffffffffff166370a08231600160009054906101000a900473ffffffffffffffffffffffffffffffffffffffff166040518263ffffffff1660e01b8152600401612ea791906145f0565b60206040518083038186803b158015612ebf57600080fd5b505afa158015612ed3573d6000803e3d6000fd5b505050506040513d601f19601f82011682018060405250810190612ef791906143ba565b905081811015612fd457600460009054906101000a900473ffffffffffffffffffffffffffffffffffffffff1673ffffffffffffffffffffffffffffffffffffffff166340c10f19600160009054906101000a900473ffffffffffffffffffffffffffffffffffffffff16846040518363ffffffff1660e01b8152600401612f80929190614695565b602060405180830381600087803b158015612f9a57600080fd5b505af1158015612fae573d6000803e3d6000fd5b505050506040513d601f19601f82011682018060405250810190612fd291906143ba565b505b600760009054906101000a900473ffffffffffffffffffffffffffffffffffffffff1673ffffffffffffffffffffffffffffffffffffffff16632e1a7d4d836040518263ffffffff1660e01b815260040161302f91906149aa565b600060405180830381600087803b15801561304957600080fd5b505af115801561305d573d6000803e3d6000fd5b505050506001600b60008573ffffffffffffffffffffffffffffffffffffffff1673ffffffffffffffffffffffffffffffffffffffff16815260200190815260200160002060006101000a81548160ff021916908315150217905550600660009054906101000a900473ffffffffffffffffffffffffffffffffffffffff1673ffffffffffffffffffffffffffffffffffffffff1663a9059cbb84846040518363ffffffff1660e01b8152600401613116929190614695565b602060405180830381600087803b15801561313057600080fd5b505af1158015613144573d6000803e3d6000fd5b505050506040513d601f19601f820116820180604052508101906131689190614368565b6131a7576040517f08c379a000000000000000000000000000000000000000000000000000000000815260040161319e9061496a565b60405180910390fd5b601d60008154809291906131ba90614cc8565b9190505550505050565b600080600080600a60008673ffffffffffffffffffffffffffffffffffffffff1673ffffffffffffffffffffffffffffffffffffffff168152602001908152602001600020600201549350613222844261391b90919063ffffffff16565b9250600a60008673ffffffffffffffffffffffffffffffffffffffff1673ffffffffffffffffffffffffffffffffffffffff16815260200190815260200160002060030154915061327c824261391b90919063ffffffff16565b90509193509193565b61328d61337d565b73ffffffffffffffffffffffffffffffffffffffff166132ab6122ac565b73ffffffffffffffffffffffffffffffffffffffff1614613301576040517f08c379a00000000000000000000000000000000000000000000000000000000081526004016132f8906148ea565b60405180910390fd5b600073ffffffffffffffffffffffffffffffffffffffff168173ffffffffffffffffffffffffffffffffffffffff161415613371576040517f08c379a00000000000000000000000000000000000000000000000000000000081526004016133689061482a565b60405180910390fd5b61337a81613943565b50565b600033905090565b6000613392826001613a54565b90506000600660009054906101000a900473ffffffffffffffffffffffffffffffffffffffff1673ffffffffffffffffffffffffffffffffffffffff166370a08231600160009054906101000a900473ffffffffffffffffffffffffffffffffffffffff166040518263ffffffff1660e01b815260040161341391906145f0565b60206040518083038186803b15801561342b57600080fd5b505afa15801561343f573d6000803e3d6000fd5b505050506040513d601f19601f8201168201806040525081019061346391906143ba565b9050818110156135585760006134828284613e2190919063ffffffff16565b9050600460009054906101000a900473ffffffffffffffffffffffffffffffffffffffff1673ffffffffffffffffffffffffffffffffffffffff166340c10f19600160009054906101000a900473ffffffffffffffffffffffffffffffffffffffff16836040518363ffffffff1660e01b8152600401613503929190614695565b602060405180830381600087803b15801561351d57600080fd5b505af1158015613531573d6000803e3d6000fd5b505050506040513d601f19601f8201168201806040525081019061355591906143ba565b50505b600760009054906101000a900473ffffffffffffffffffffffffffffffffffffffff1673ffffffffffffffffffffffffffffffffffffffff16632e1a7d4d836040518263ffffffff1660e01b81526004016135b391906149aa565b600060405180830381600087803b1580156135cd57600080fd5b505af11580156135e1573d6000803e3d6000fd5b505050506000613619606461360b6135fc6064600d54613e21565b8661389c90919063ffffffff16565b61390590919063ffffffff16565b9050600660009054906101000a900473ffffffffffffffffffffffffffffffffffffffff1673ffffffffffffffffffffffffffffffffffffffff1663a9059cbb85836040518363ffffffff1660e01b8152600401613678929190614695565b602060405180830381600087803b15801561369257600080fd5b505af11580156136a6573d6000803e3d6000fd5b505050506040513d601f19601f820116820180604052508101906136ca9190614368565b613709576040517f08c379a00000000000000000000000000000000000000000000000000000000081526004016137009061496a565b60405180910390fd5b8373ffffffffffffffffffffffffffffffffffffffff167f51e3415e8dd1b315ada9b5823098637d5b45e2c277bbc5069a7be8a834c5bf01600860008773ffffffffffffffffffffffffffffffffffffffff1673ffffffffffffffffffffffffffffffffffffffff16815260200190815260200160002060010154600860008873ffffffffffffffffffffffffffffffffffffffff1673ffffffffffffffffffffffffffffffffffffffff16815260200190815260200160002060050154600860008973ffffffffffffffffffffffffffffffffffffffff1673ffffffffffffffffffffffffffffffffffffffff16815260200190815260200160002060070154600860008a73ffffffffffffffffffffffffffffffffffffffff1673ffffffffffffffffffffffffffffffffffffffff1681526020019081526020016000206002015460405161385d9493929190614a25565b60405180910390a2601d600081548092919061387890614cc8565b919050555050505050565b60008183106138925781613894565b825b905092915050565b6000808314156138af57600090506138ff565b81836138bb9190614bb4565b90508183826138ca9190614b83565b146138fe577f4e487b7100000000000000000000000000000000000000000000000000000000600052600160045260246000fd5b5b92915050565b600081836139139190614b83565b905092915050565b60008282111561392e576000905061393d565b818361393a9190614c0e565b90505b92915050565b60008060009054906101000a900473ffffffffffffffffffffffffffffffffffffffff169050816000806101000a81548173ffffffffffffffffffffffffffffffffffffffff021916908373ffffffffffffffffffffffffffffffffffffffff1602179055508173ffffffffffffffffffffffffffffffffffffffff168173ffffffffffffffffffffffffffffffffffffffff167f8be0079c531659141344cd1fd0a4f28419497f9722a3daafe3b4186f6b6457e060405160405180910390a35050565b60008183613a159190614b2d565b905082811015613a4e577f4e487b7100000000000000000000000000000000000000000000000000000000600052600160045260246000fd5b92915050565b6000806000806000613a6587611544565b935093509350935082600860008973ffffffffffffffffffffffffffffffffffffffff1673ffffffffffffffffffffffffffffffffffffffff1681526020019081526020016000206007015410613af1576040517f08c379a0000000000000000000000000000000000000000000000000000000008152600401613ae89061484a565b60405180910390fd5b6000821115613c01578282600860008a73ffffffffffffffffffffffffffffffffffffffff1673ffffffffffffffffffffffffffffffffffffffff16815260200190815260200160002060070154613b499190614b2d565b1115613ba757613ba4600860008973ffffffffffffffffffffffffffffffffffffffff1673ffffffffffffffffffffffffffffffffffffffff168152602001908152602001600020600701548461391b90919063ffffffff16565b91505b83600860008973ffffffffffffffffffffffffffffffffffffffff1673ffffffffffffffffffffffffffffffffffffffff1681526020019081526020016000206007016000828254613bf99190614b2d565b925050819055505b60008211613c44576040517f08c379a0000000000000000000000000000000000000000000000000000000008152600401613c3b9061490a565b60405180910390fd5b81601b6000828254613c569190614b2d565b9250508190555042600860008973ffffffffffffffffffffffffffffffffffffffff1673ffffffffffffffffffffffffffffffffffffffff168152602001908152602001600020600601819055506000600860008973ffffffffffffffffffffffffffffffffffffffff1673ffffffffffffffffffffffffffffffffffffffff168152602001908152602001600020600a01819055508673ffffffffffffffffffffffffffffffffffffffff167f884edad9ce6fa2440d8a54cc123490eb96d2768479d49ff9c7366125a942436483604051613d3291906149aa565b60405180910390a282600860008973ffffffffffffffffffffffffffffffffffffffff1673ffffffffffffffffffffffffffffffffffffffff1681526020019081526020016000206007015410613e14578673ffffffffffffffffffffffffffffffffffffffff167f97ddeb77c85e6a1dd99a34fe2bb1a4f9b211d5ffced7a707de9dbeb24363d0e4600860008a73ffffffffffffffffffffffffffffffffffffffff1673ffffffffffffffffffffffffffffffffffffffff16815260200190815260200160002060070154604051613e0b91906149aa565b60405180910390a25b8194505050505092915050565b600082821115613e5a577f4e487b7100000000000000000000000000000000000000000000000000000000600052600160045260246000fd5b8183613e669190614c0e565b905092915050565b80600860008473ffffffffffffffffffffffffffffffffffffffff1673ffffffffffffffffffffffffffffffffffffffff1681526020019081526020016000206005016000828254613ec09190614b2d565b9250508190555042600860008473ffffffffffffffffffffffffffffffffffffffff1673ffffffffffffffffffffffffffffffffffffffff1681526020019081526020016000206006018190555080601a6000828254613f209190614b2d565b925050819055508173ffffffffffffffffffffffffffffffffffffffff167f2cb77763bc1e8490c1a904905c4d74b4269919aca114464f4bb4d911e60de36482604051613f6d91906149aa565b60405180910390a25050565b6000613f86826000613a54565b90506000613fbc6064613fae613f9f6064600c54613e21565b8561389c90919063ffffffff16565b61390590919063ffffffff16565b9050613fc88382613e6e565b80600860008573ffffffffffffffffffffffffffffffffffffffff1673ffffffffffffffffffffffffffffffffffffffff168152602001908152602001600020600801600082825461401a9190614b2d565b925050819055508273ffffffffffffffffffffffffffffffffffffffff167f51e3415e8dd1b315ada9b5823098637d5b45e2c277bbc5069a7be8a834c5bf01600860008673ffffffffffffffffffffffffffffffffffffffff1673ffffffffffffffffffffffffffffffffffffffff16815260200190815260200160002060010154600860008773ffffffffffffffffffffffffffffffffffffffff1673ffffffffffffffffffffffffffffffffffffffff16815260200190815260200160002060050154600860008873ffffffffffffffffffffffffffffffffffffffff1673ffffffffffffffffffffffffffffffffffffffff16815260200190815260200160002060070154600860008973ffffffffffffffffffffffffffffffffffffffff1673ffffffffffffffffffffffffffffffffffffffff168152602001908152602001600020600201546040516141759493929190614a25565b60405180910390a2601d600081548092919061419090614cc8565b9190505550505050565b50805460008255906000526020600020908101906141b891906141bb565b50565b5b808211156141d45760008160009055506001016141bc565b5090565b60006141eb6141e684614af0565b614acb565b9050808382526020820190508285602086028201111561420a57600080fd5b60005b8581101561423a57816142208882614298565b84526020840193506020830192505060018101905061420d565b5050509392505050565b60008135905061425381615037565b92915050565b600082601f83011261426a57600080fd5b813561427a8482602086016141d8565b91505092915050565b6000815190506142928161504e565b92915050565b6000813590506142a781615065565b92915050565b6000815190506142bc81615065565b92915050565b6000602082840312156142d457600080fd5b60006142e284828501614244565b91505092915050565b600080604083850312156142fe57600080fd5b600061430c85828601614244565b925050602061431d85828601614298565b9150509250929050565b60006020828403121561433957600080fd5b600082013567ffffffffffffffff81111561435357600080fd5b61435f84828501614259565b91505092915050565b60006020828403121561437a57600080fd5b600061438884828501614283565b91505092915050565b6000602082840312156143a357600080fd5b60006143b184828501614298565b91505092915050565b6000602082840312156143cc57600080fd5b60006143da848285016142ad565b91505092915050565b600080604083850312156143f657600080fd5b6000614404858286016142ad565b9250506020614415858286016142ad565b9150509250929050565b61442881614c42565b82525050565b61443781614c54565b82525050565b600061444a602683614b1c565b915061445582614dd9565b604082019050919050565b600061446d600c83614b1c565b915061447882614e28565b602082019050919050565b6000614490601083614b1c565b915061449b82614e51565b602082019050919050565b60006144b3604683614b1c565b91506144be82614e7a565b606082019050919050565b60006144d6601483614b1c565b91506144e182614eef565b602082019050919050565b60006144f9600d83614b1c565b915061450482614f18565b602082019050919050565b600061451c602083614b1c565b915061452782614f41565b602082019050919050565b600061453f600b83614b1c565b915061454a82614f6a565b602082019050919050565b6000614562600f83614b1c565b915061456d82614f93565b602082019050919050565b6000614585601c83614b1c565b915061459082614fbc565b602082019050919050565b60006145a8601a83614b1c565b91506145b382614fe5565b602082019050919050565b60006145cb601783614b1c565b91506145d68261500e565b602082019050919050565b6145ea81614c80565b82525050565b6000602082019050614605600083018461441f565b92915050565b6000606082019050614620600083018661441f565b61462d602083018561441f565b61463a60408301846145e1565b949350505050565b600060a082019050614657600083018861441f565b614664602083018761441f565b61467160408301866145e1565b61467e60608301856145e1565b61468b60808301846145e1565b9695505050505050565b60006040820190506146aa600083018561441f565b6146b760208301846145e1565b9392505050565b60006060820190506146d3600083018661441f565b6146e060208301856145e1565b6146ed604083018461441f565b949350505050565b600060e08201905061470a600083018a61441f565b61471760208301896145e1565b61472460408301886145e1565b61473160608301876145e1565b61473e60808301866145e1565b61474b60a08301856145e1565b61475860c08301846145e1565b98975050505050505050565b60006101608201905061477a600083018e61441f565b614787602083018d6145e1565b614794604083018c6145e1565b6147a1606083018b6145e1565b6147ae608083018a6145e1565b6147bb60a08301896145e1565b6147c860c08301886145e1565b6147d560e08301876145e1565b6147e36101008301866145e1565b6147f16101208301856145e1565b6147ff6101408301846145e1565b9c9b505050505050505050505050565b6000602082019050614824600083018461442e565b92915050565b600060208201905081810360008301526148438161443d565b9050919050565b6000602082019050818103600083015261486381614460565b9050919050565b6000602082019050818103600083015261488381614483565b9050919050565b600060208201905081810360008301526148a3816144a6565b9050919050565b600060208201905081810360008301526148c3816144c9565b9050919050565b600060208201905081810360008301526148e3816144ec565b9050919050565b600060208201905081810360008301526149038161450f565b9050919050565b6000602082019050818103600083015261492381614532565b9050919050565b6000602082019050818103600083015261494381614555565b9050919050565b6000602082019050818103600083015261496381614578565b9050919050565b600060208201905081810360008301526149838161459b565b9050919050565b600060208201905081810360008301526149a3816145be565b9050919050565b60006020820190506149bf60008301846145e1565b92915050565b60006040820190506149da60008301856145e1565b6149e760208301846145e1565b9392505050565b6000606082019050614a0360008301866145e1565b614a1060208301856145e1565b614a1d60408301846145e1565b949350505050565b6000608082019050614a3a60008301876145e1565b614a4760208301866145e1565b614a5460408301856145e1565b614a6160608301846145e1565b95945050505050565b600060c082019050614a7f60008301896145e1565b614a8c60208301886145e1565b614a9960408301876145e1565b614aa660608301866145e1565b614ab360808301856145e1565b614ac060a08301846145e1565b979650505050505050565b6000614ad5614ae6565b9050614ae18282614c97565b919050565b6000604051905090565b600067ffffffffffffffff821115614b0b57614b0a614d99565b5b602082029050602081019050919050565b600082825260208201905092915050565b6000614b3882614c80565b9150614b4383614c80565b9250827fffffffffffffffffffffffffffffffffffffffffffffffffffffffffffffffff03821115614b7857614b77614d3b565b5b828201905092915050565b6000614b8e82614c80565b9150614b9983614c80565b925082614ba957614ba8614d6a565b5b828204905092915050565b6000614bbf82614c80565b9150614bca83614c80565b9250817fffffffffffffffffffffffffffffffffffffffffffffffffffffffffffffffff0483118215151615614c0357614c02614d3b565b5b828202905092915050565b6000614c1982614c80565b9150614c2483614c80565b925082821015614c3757614c36614d3b565b5b828203905092915050565b6000614c4d82614c60565b9050919050565b60008115159050919050565b600073ffffffffffffffffffffffffffffffffffffffff82169050919050565b6000819050919050565b600060ff82169050919050565b614ca082614dc8565b810181811067ffffffffffffffff82111715614cbf57614cbe614d99565b5b80604052505050565b6000614cd382614c80565b91507fffffffffffffffffffffffffffffffffffffffffffffffffffffffffffffffff821415614d0657614d05614d3b565b5b600182019050919050565b6000614d1c82614c8a565b915060ff821415614d3057614d2f614d3b565b5b600182019050919050565b7f4e487b7100000000000000000000000000000000000000000000000000000000600052601160045260246000fd5b7f4e487b7100000000000000000000000000000000000000000000000000000000600052601260045260246000fd5b7f4e487b7100000000000000000000000000000000000000000000000000000000600052604160045260246000fd5b6000601f19601f8301169050919050565b7f4f776e61626c653a206e6577206f776e657220697320746865207a65726f206160008201527f6464726573730000000000000000000000000000000000000000000000000000602082015250565b7f46756c6c207061796f7574730000000000000000000000000000000000000000600082015250565b7f596f7520617265206e6f74206465762100000000000000000000000000000000600082015250565b7f4452495020746f20636f6e7472616374207472616e73666572206661696c656460008201527f3b20636865636b2062616c616e636520616e6420616c6c6f77616e63652c206160208201527f697264726f700000000000000000000000000000000000000000000000000000604082015250565b7f596f7520616c726561647920636c61696d656421000000000000000000000000600082015250565b7f5f746f206e6f7420666f756e6400000000000000000000000000000000000000600082015250565b7f4f776e61626c653a2063616c6c6572206973206e6f7420746865206f776e6572600082015250565b7f5a65726f207061796f7574000000000000000000000000000000000000000000600082015250565b7f4d696e696d756d206465706f7369740000000000000000000000000000000000600082015250565b7f596f752063616e27742063616c696d206265666f722031206461792100000000600082015250565b7f4452495020746f6b656e207472616e73666572206661696c6564000000000000600082015250565b7f496e697469616c206465706f73697420746f6f206c6f77000000000000000000600082015250565b61504081614c42565b811461504b57600080fd5b50565b61505781614c54565b811461506257600080fd5b50565b61506e81614c80565b811461507957600080fd5b5056fea26469706673582212209ec20158ff16b915be0f9d2d5bdef0d35f7b362aafdc03281a2c790eccf1641964736f6c63430008040033",
  "linkReferences": {},
  "deployedLinkReferences": {}
}