{
  "_format": "hh-sol-artifact-1",
  "contractName": "Whitelist",
  "sourceName": "contracts/Whitelist.sol",
  "abi": [
    {
      "constant": false,
      "inputs": [
        {
          "name": "addrs",
          "type": "address[]"
        }
      ],
      "name": "removeAddressesFromWhitelist",
      "outputs": [
        {
          "name": "success",
          "type": "bool"
        }
      ],
      "payable": false,
      "stateMutability": "nonpayable",
      "type": "function"
    },
    {
      "constant": false,
      "inputs": [
        {
          "name": "addr",
          "type": "address"
        }
      ],
      "name": "removeAddressFromWhitelist",
      "outputs": [
        {
          "name": "success",
          "type": "bool"
        }
      ],
      "payable": false,
      "stateMutability": "nonpayable",
      "type": "function"
    },
    {
      "constant": false,
      "inputs": [
        {
          "name": "addr",
          "type": "address"
        }
      ],
      "name": "addAddressToWhitelist",
      "outputs": [
        {
          "name": "success",
          "type": "bool"
        }
      ],
      "payable": false,
      "stateMutability": "nonpayable",
      "type": "function"
    },
    {
      "constant": true,
      "inputs": [],
      "name": "owner",
      "outputs": [
        {
          "name": "",
          "type": "address"
        }
      ],
      "payable": false,
      "stateMutability": "view",
      "type": "function"
    },
    {
      "constant": true,
      "inputs": [
        {
          "name": "",
          "type": "address"
        }
      ],
      "name": "whitelist",
      "outputs": [
        {
          "name": "",
          "type": "bool"
        }
      ],
      "payable": false,
      "stateMutability": "view",
      "type": "function"
    },
    {
      "constant": false,
      "inputs": [
        {
          "name": "addrs",
          "type": "address[]"
        }
      ],
      "name": "addAddressesToWhitelist",
      "outputs": [
        {
          "name": "success",
          "type": "bool"
        }
      ],
      "payable": false,
      "stateMutability": "nonpayable",
      "type": "function"
    },
    {
      "constant": false,
      "inputs": [
        {
          "name": "newOwner",
          "type": "address"
        }
      ],
      "name": "transferOwnership",
      "outputs": [],
      "payable": false,
      "stateMutability": "nonpayable",
      "type": "function"
    },
    {
      "anonymous": false,
      "inputs": [
        {
          "indexed": false,
          "name": "addr",
          "type": "address"
        }
      ],
      "name": "WhitelistedAddressAdded",
      "type": "event"
    },
    {
      "anonymous": false,
      "inputs": [
        {
          "indexed": false,
          "name": "addr",
          "type": "address"
        }
      ],
      "name": "WhitelistedAddressRemoved",
      "type": "event"
    },
    {
      "anonymous": false,
      "inputs": [
        {
          "indexed": true,
          "name": "previousOwner",
          "type": "address"
        },
        {
          "indexed": true,
          "name": "newOwner",
          "type": "address"
        }
      ],
      "name": "OwnershipTransferred",
      "type": "event"
    }
  ],
  "bytecode": "0x608060405260008054600160a060020a03191633179055610607806100256000396000f3006080604052600436106100825763ffffffff7c010000000000000000000000000000000000000000000000000000000060003504166324953eaa8114610087578063286dd3f5146100f05780637b9417c8146101115780638da5cb5b146101325780639b19251a14610163578063e2ec6ec314610184578063f2fde38b146101d9575b600080fd5b34801561009357600080fd5b50604080516020600480358082013583810280860185019096528085526100dc953695939460249493850192918291850190849080828437509497506101fc9650505050505050565b604080519115158252519081900360200190f35b3480156100fc57600080fd5b506100dc600160a060020a0360043516610294565b34801561011d57600080fd5b506100dc600160a060020a0360043516610364565b34801561013e57600080fd5b50610147610438565b60408051600160a060020a039092168252519081900360200190f35b34801561016f57600080fd5b506100dc600160a060020a0360043516610447565b34801561019057600080fd5b50604080516020600480358082013583810280860185019096528085526100dc9536959394602494938501929182918501908490808284375094975061045c9650505050505050565b3480156101e557600080fd5b506101fa600160a060020a03600435166104ee565b005b600080548190600160a060020a0316331461024f576040805160e560020a62461bcd02815260206004820152600a60248201526000805160206105bc833981519152604482015290519081900360640190fd5b5060005b825181101561028e5761027c838281518110151561026d57fe5b90602001906020020151610294565b1561028657600191505b600101610253565b50919050565b60008054600160a060020a031633146102e5576040805160e560020a62461bcd02815260206004820152600a60248201526000805160206105bc833981519152604482015290519081900360640190fd5b600160a060020a03821660009081526001602052604090205460ff161561035f57600160a060020a038216600081815260016020908152604091829020805460ff19169055815192835290517ff1abf01a1043b7c244d128e8595cf0c1d10743b022b03a02dffd8ca3bf729f5a9281900390910190a15060015b919050565b60008054600160a060020a031633146103b5576040805160e560020a62461bcd02815260206004820152600a60248201526000805160206105bc833981519152604482015290519081900360640190fd5b600160a060020a03821660009081526001602052604090205460ff16151561035f57600160a060020a038216600081815260016020818152604092839020805460ff1916909217909155815192835290517fd1bba68c128cc3f427e5831b3c6f99f480b6efa6b9e80c757768f6124158cc3f9281900390910190a1506001919050565b600054600160a060020a031681565b60016020526000908152604090205460ff1681565b600080548190600160a060020a031633146104af576040805160e560020a62461bcd02815260206004820152600a60248201526000805160206105bc833981519152604482015290519081900360640190fd5b5060005b825181101561028e576104dc83828151811015156104cd57fe5b90602001906020020151610364565b156104e657600191505b6001016104b3565b600054600160a060020a0316331461053e576040805160e560020a62461bcd02815260206004820152600a60248201526000805160206105bc833981519152604482015290519081900360640190fd5b600160a060020a038116151561055357600080fd5b60008054604051600160a060020a03808516939216917f8be0079c531659141344cd1fd0a4f28419497f9722a3daafe3b4186f6b6457e091a36000805473ffffffffffffffffffffffffffffffffffffffff1916600160a060020a039290921691909117905556006f6e6c79206f776e657200000000000000000000000000000000000000000000a165627a7a723058203ad5b165094a4e89616771ee9521d240d34831e73825eeefc5290f5e3b9cf9610029",
  "linkReferences": {},
  "deployedLinkReferences": {}
}